:020000020000FC
:040000008FC0189500
:0400060010C02AC03C
:08000C0055C06DC06DC06DC050
:04001C0069C069C08E
:1000260018953030C1F0313011F4C69814C0323012
:1000360011F4C79810C0333011F495980CC03430C1
:1000460011F4969808C0353011F4979804C03630EC
:1000560011F4C09833271895E6E1F1E0303029F421
:10006600009167004BD0C69A22C0313029F4009126
:10007600660044D0C79A1BC0323029F40091640050
:100086003DD0959A14C0333029F40091630036D0E0
:10009600969A0DC0343029F4009161002FD0979ABA
:1000A60006C0353021F40091600028D0C09A3395FF
:1000B600189563956C3389F4662773957C3349F4F8
:1000C60077278395883109F48827082F10D0C6E64C
:1000D60019D0072F0CD0C3E615D0062F08D0C0E6DE
:1000E60011D01895189518951895189518951127E3
:1000F6000A5010F01395FCCF065F0895E00F0491A7
:1001060005BB0895099319931295012B0883089549
:100116000001040508090C0D0203E0E6F0E00027E3
:100126000193F430E9F7E036D9F7EE27FF27EEE141
:10013600FF27EA95F083E9F704E00EBF0FE50DBF50
:1001460000E808B9DD2701EC07BB03EE01BB0FE0B1
:1001560004BB02E005BF00E40BBF0AE70BBD01E1EB
:100166000ABD0CE00EBD04E005BD002704BD0FEF7F
:1001760003BD00ED09BF78E3072FB9DFC3E6099396
:10018600188311278DE0082FB2DFC6E6099318837E
:040196007894FFCF8B
:00000001FF
