:020000020000FC
:040000006CC0189523
:0400060010C028C03E
:08000C003FC05BC05BC05BC09C
:04001C0057C057C0B2
:100026001895113011F4C69814C0123011F4C798FF
:1000360010C0133011F495980CC0143011F4969832
:1000460008C0153011F4979804C0163011F4C09802
:1000560011271895103011F4C69A13C0113011F4F7
:10006600C79A0FC0123011F4959A0BC0133011F4D1
:10007600969A07C0143011F4979A03C0153009F404
:10008600C09A1395189523952A30C9F422273395DB
:100096003630A9F4332743954A3089F444275395DB
:1000A600563069F455276395643048F0723019F478
:1000B6006627772704C06A3011F46627739518956A
:1000C60018951895189518951895000104050809AE
:1000D6000C0D020304E00EBF0FE50DBF00E808B9E2
:1000E60001EC07BB03EE01BB0FE004BB02E005BF5A
:1000F60000E40BBF04EF0BBD03E20ABD0AE00EBD30
:1001060004E005BD002704BD0FEF03BD00ED09BFE8
:1001160000277894E0EDF0E0113019F4E70F049130
:1001260005BB123019F4E60F049105BB133019F420
:10013600E50F049105BB143019F4E40F049105BBD7
:10014600153019F4E30F049105BB163019F4E20FCC
:06015600049105BBDFCFA0
:00000001FF
