:020000020000FC
:040000004CC0189543
:0400060010C028C03E
:08000C003FC040C040C040C0ED
:04001C003CC03CC0E8
:100026001895113011F4C69814C0123011F4C798FF
:1000360010C0133011F495980CC0143011F4969832
:1000460008C0153011F4979804C0163011F4C09802
:1000560011271895103011F4C69A13C0113011F4F7
:10006600C79A0FC0123011F4959A0BC0133011F4D1
:10007600969A07C0143011F4979A03C0153009F404
:10008600C09A139518951394189518951895189560
:100096001895189504E00EBF0FE50DBF00E808B9E6
:1000A60001EC07BB03EE01BB0FE004BB02E005BF9A
:1000B60000E40BBF04EF0BBD03E20ABD0CE00EBD6E
:1000C60004E005BD002704BD0FEF03BD00ED09BF29
:1000D600ECE2F1E004E1302E08E5202E0CE9102ECA
:1000E6007894113021F4032D02950F7005BB123060
:1000F60019F4032D0F7005BB133021F4022D029560
:100106000F7005BB143019F4022D0F7005BB1530A6
:1001160021F4012D02950F7005BB163019F4012D3F
:100126000F7005BBDECF0001040508090C0D0203A4
:00000001FF
