:020000020000FC
:040000003CC0189553
:0400060010C010C056
:08000C0030C030C030C030C02C
:04001C002CC02CC008
:10002600189518951395163009F41127103019F400
:10003600C098C69A18C0113019F4C698C79A13C04A
:10004600123019F4C798959A0EC0133019F4959882
:10005600969A09C0143019F49698979A04C01530E8
:1000660011F49798C09A189518951895189518959B
:100076001895189504E00EBF0FE50DBF00E808B906
:1000860001EC07BB03EE01BB0FE004BB02E005BFBA
:1000960000E40BBF07E005BD002704BD0FEF03BD5D
:0E00A60000E409BF7894AA9AA89A0000FECF41
:00000001FF
