:020000020000FC
:040000004BC0189544
:0400060010C028C03E
:08000C003FC03FC03FC03FC0F0
:04001C003BC03BC0EA
:100026001895113011F4C69814C0123011F4C798FF
:1000360010C0133011F495980CC0143011F4969832
:1000460008C0153011F4979804C0163011F4C09802
:1000560011271895103011F4C69A13C0113011F4F7
:10006600C79A0FC0123011F4959A0BC0133011F4D1
:10007600969A07C0143011F4979A03C0153009F404
:10008600C09A13951895189518951895189518955A
:10009600189504E00EBF0FE50DBF00E808B901ECA6
:1000A60007BB03EE01BB0FE004BB02E005BF00E4A3
:1000B6000BBF04E005BD002704BD00E203BD00EC54
:1000C60009BF7894AA9AA89A0027039503BD2FEF33
:0A00D6003FEF31502040E8F7F8CF6B
:00000001FF
