:020000020000FC
:040000003CC0189553
:0400060010C010C056
:08000C0030C030C030C030C02C
:04001C002CC02CC008
:10002600189518951395163039F4112708B30E73E1
:1000360008BB02B30F7102BB103011F4C69A13C08D
:10004600113011F4C79A0FC0123011F4959A0BC0F3
:10005600133011F4969A07C0143011F4979A03C01E
:10006600153009F4C09A189518951895189518958D
:100076001895189504E00EBF0FE50DBF00E808B906
:1000860001EC07BB03EE01BB0FE004BB00E40BBFB2
:1000960005E005BD002704BD0FEF03BD00E409BF61
:1000A600AA9AA89AC69A2FEF3FEF31502040E8F758
:1000B600C698C79A2FEF3FEF31502040E8F7C79810
:1000C600959A2FEF3FEF31502040E8F79598969A92
:1000D6002FEF3FEF31502040E8F79698979A2FEF91
:1000E6003FEF31502040E8F79798C09A2FEF3FEF47
:0C00F60031502040E8F7C0980000D4CF43
:00000001FF
