:020000020000FC
:0400000055C011C016
:0400060010C010C056
:08000C0049C049C049C049C0C8
:04001C0045C045C0D6
:10002600089508951395163009F41127103039F400
:1000360008B30E7308BB02B30F7102BBC69A113028
:1000460039F408B30E7308BB02B30F7102BBC79A2B
:10005600123039F408B30E7308BB02B30F7102BB3A
:10006600959A133039F408B30E7308BB02B30F71B7
:1000760002BB969A143039F408B30E7308BB02B368
:100086000F7102BB979A153039F408B30E7308BB8B
:1000960002B30F7102BBC09A08950895089508959A
:1000A60008950895089504E00EBF0FE50DBF00E81A
:1000B60008B901EC07BB03EE01BB0FE004BB00E48B
:1000C6000BBF05E005BD002704BD0FEF03BD00EC27
:0600D60009BF7894E8CF99
:00000001FF
