:020000020000FC
:040000004DC0189542
:0400060010C027C03F
:08000C0041C041C041C041C0E8
:04001C003DC03DC0E6
:100026001895163011F4C09813C0113011F4C69803
:100036000FC0123011F4C7980BC0133011F4959805
:1000460007C0143011F4969803C0153009F4979838
:100056001895163009F41127103011F4C69A13C0FA
:10006600113011F4C79A0FC0123011F4959A0BC0D3
:10007600133011F4969A07C0143011F4979A03C0FE
:10008600153009F4C09A1395189518951895189572
:1000960018951895189504E00EBF0FE50DBF00E8FA
:1000A60008B901EC07BB03EE01BB0FE004BB02E09D
:1000B60005BF00E40BBF04E005BD002704BD00E258
:1000C60003BD00EC09BF7894AA9AA89A0027039565
:0E00D60003BD2FEF3FEF31502040E8F7F8CF89
:00000001FF
